{
  "_format": "hh-sol-artifact-1",
  "contractName": "SimpleStorage",
  "sourceName": "contracts/SimpleStorage.sol",
  "abi": [
    {
      "inputs": [],
      "stateMutability": "nonpayable",
      "type": "constructor"
    },
    {
      "anonymous": false,
      "inputs": [
        {
          "indexed": false,
          "internalType": "string",
          "name": "newMessage",
          "type": "string"
        }
      ],
      "name": "MessageUpdated",
      "type": "event"
    },
    {
      "anonymous": false,
      "inputs": [
        {
          "indexed": true,
          "internalType": "address",
          "name": "oldOwner",
          "type": "address"
        },
        {
          "indexed": true,
          "internalType": "address",
          "name": "newOwner",
          "type": "address"
        }
      ],
      "name": "OwnerSet",
      "type": "event"
    },
    {
      "anonymous": false,
      "inputs": [
        {
          "indexed": false,
          "internalType": "uint256",
          "name": "newValue",
          "type": "uint256"
        }
      ],
      "name": "ValueUpdated",
      "type": "event"
    },
    {
      "inputs": [],
      "name": "getMessage",
      "outputs": [
        {
          "internalType": "string",
          "name": "",
          "type": "string"
        }
      ],
      "stateMutability": "view",
      "type": "function"
    },
    {
      "inputs": [],
      "name": "getValue",
      "outputs": [
        {
          "internalType": "uint256",
          "name": "",
          "type": "uint256"
        }
      ],
      "stateMutability": "view",
      "type": "function"
    },
    {
      "inputs": [],
      "name": "owner",
      "outputs": [
        {
          "internalType": "address",
          "name": "",
          "type": "address"
        }
      ],
      "stateMutability": "view",
      "type": "function"
    },
    {
      "inputs": [
        {
          "internalType": "string",
          "name": "_message",
          "type": "string"
        }
      ],
      "name": "setMessage",
      "outputs": [],
      "stateMutability": "nonpayable",
      "type": "function"
    },
    {
      "inputs": [
        {
          "internalType": "uint256",
          "name": "_value",
          "type": "uint256"
        }
      ],
      "name": "setValue",
      "outputs": [],
      "stateMutability": "nonpayable",
      "type": "function"
    }
  ],
  "bytecode": "0x6080604052348015600f57600080fd5b5060008054336001600160a01b03198216811783556040516001600160a01b0390921692909183917f342827c97908e5e2f71151c08502a66d44b6f758e3ac2f1de95f02eb95f0a73591a3506105228061006a6000396000f3fe608060405234801561001057600080fd5b50600436106100575760003560e01c8063209652551461005c578063368b87721461007257806355241077146100875780638da5cb5b1461009a578063ce6d41de146100c5575b600080fd5b6001546040519081526020015b60405180910390f35b610085610080366004610283565b6100da565b005b6100856100953660046102f7565b610170565b6000546100ad906001600160a01b031681565b6040516001600160a01b039091168152602001610069565b6100cd6101f1565b6040516100699190610310565b6000546001600160a01b031633146101255760405162461bcd60e51b81526020600482015260096024820152682737ba1037bbb732b960b91b60448201526064015b60405180910390fd5b60026101328284836103fd565b507f8fae638bf5c6396194a6bb16601c4035a07fa48191638ff4102f0d96f14cfefb82826040516101649291906104bd565b60405180910390a15050565b6000546001600160a01b031633146101b65760405162461bcd60e51b81526020600482015260096024820152682737ba1037bbb732b960b91b604482015260640161011c565b60018190556040518181527f4273d0736f60e0dedfe745e86718093d8ec8646ebd2a60cd60643eeced5658119060200160405180910390a150565b60606002805461020090610374565b80601f016020809104026020016040519081016040528092919081815260200182805461022c90610374565b80156102795780601f1061024e57610100808354040283529160200191610279565b820191906000526020600020905b81548152906001019060200180831161025c57829003601f168201915b5050505050905090565b6000806020838503121561029657600080fd5b823567ffffffffffffffff8111156102ad57600080fd5b8301601f810185136102be57600080fd5b803567ffffffffffffffff8111156102d557600080fd5b8560208284010111156102e757600080fd5b6020919091019590945092505050565b60006020828403121561030957600080fd5b5035919050565b602081526000825180602084015260005b8181101561033e5760208186018101516040868401015201610321565b506000604082850101526040601f19601f83011684010191505092915050565b634e487b7160e01b600052604160045260246000fd5b600181811c9082168061038857607f821691505b6020821081036103a857634e487b7160e01b600052602260045260246000fd5b50919050565b601f8211156103f857806000526020600020601f840160051c810160208510156103d55750805b601f840160051c820191505b818110156103f557600081556001016103e1565b50505b505050565b67ffffffffffffffff8311156104155761041561035e565b610429836104238354610374565b836103ae565b6000601f84116001811461045d57600085156104455750838201355b600019600387901b1c1916600186901b1783556103f5565b600083815260209020601f19861690835b8281101561048e578685013582556020948501946001909201910161046e565b50868210156104ab5760001960f88860031b161c19848701351681555b505060018560011b0183555050505050565b60208152816020820152818360408301376000818301604090810191909152601f909201601f1916010191905056fea26469706673582212206c3e1a91ba93e4d86bc99a1b761adc38b9c9067e722cf72067bc2767310b594064736f6c634300081b0033",
  "linkReferences": {},
  "deployedLinkReferences": {}
}